:020000040800F2
:1000000078070020090100087F0E0008770E00081D
:100010007B0E0008110800082932000800000000CB
:100020000000000000000000000000001B010008AC
:1000300015080008000000001F0100082101000849
:100040002301000823010008230100082301000800
:1000500023010008230100082508000805090008FD
:10006000290900084D09000871090008230100084A
:1000700023010008230100082301000823010008D0
:1000800023010008230100082301000823010008C0
:100090002301000823010008230100089509000836
:1000A00023010008230100082301000823010008A0
:1000B000892C0008230100082301000823010008FF
:1000C0002301000823010008230100082301000880
:1000D0002301000823010008230100082301000870
:1000E0004908000815100008230100082301000832
:1000F00023010008DFF80CD000F02CFB004800477B
:100100000534000878070020064880470648004765
:10011000FEE7FEE7FEE7FEE7FEE7FEE7FEE7FEE7B7
:10012000FEE7FEE7212C0008F500000840EA010385
:100130009B0703D009E008C9121F08C0042AFAD29D
:1001400003E011F8013B00F8013B521EF9D2704761
:10015000D2B201E000F8012B491EFBD27047002209
:10016000F6E710B513460A4604461946FFF7F0FFB6
:10017000204610BD30B505460020034600E05B1C5C
:10018000934205D2EC5CC85C201A01D1002CF6D158
:1001900030BD2DE9FE4F804681EA0300C00F0C46BA
:1001A000009021F0004123F00045B8EB0200A94186
:1001B00005D24046214690461C460B46024623F097
:1001C0000040104347D0270DC7F30A00C3F30A517C
:1001D0000290401A019040286BDAC3F3130040F4F8
:1001E000801B0098924620B10023D2EB030A63EBF8
:1001F0000B0B01985946C0F14002504600F0D8F967
:1002000006460D4650465946019A00F0F0F910EBAB
:1002100008006141002487EA115284EAE7731A4317
:1002200040D0009A62B3019A012A4FEA075215DCC6
:10023000001B61EB02014FF0004202EA0752CDE9D8
:100240000042001C41F5801132462B4600F0F0F9C7
:1002500003B0BDE8F08F40462146F9E7001B61EB93
:100260000201001C41F5801300185B412018A2F523
:10027000001747EB030140EAD570B6196D4111E054
:100280006D084FEA360645EAC0754FEA0752001B73
:1002900061EB0201001C41F5801149084FEA300072
:1002A0000019514132462B4603B0BDE8F04F00F033
:1002B000B0B90098012240000023D0EB020263EBAA
:1002C000E073009821464FEAE074B8EB000061EB60
:1002D0000401E9E783F000435BE781F0004158E760
:1002E0002DE9FE4F81EA030404F0004421F00041AF
:1002F00000944FF0000B23F0004350EA01045ED05D
:1003000052EA03045BD0C3F30A54C1F30A552C44E8
:10031000A4F2F3340194A0FB0254C1F3130141F49D
:100320008011C3F3130343F4801301FB024400FB69
:10033000034E840A970A44EA815447EA8357A4FB90
:10034000076802958D0A05FB07854FEA932C04FB8D
:100350000C542705029D4FEA065847EA1637B5EBBD
:1003600008056EEB070C870E920E47EA811742EAEA
:100370008312A7FB0201B6EB0B0164EB00042B0D0B
:1003800043EA0C335E1844EB1C50DA465146E7FB57
:100390000201C5F313044FEA0B3343EA14534FEA47
:1003A0000432019C43EA0603A4F10C040294009C6D
:1003B000CDE900B400F03CF903B0BDE8F08F0020B7
:1003C0000146F9E72DE9F04D81EA030404F0004B02
:1003D00021F0004514464FF0000A23F0004150EA96
:1003E000050220D054EA01021DD0C5F30A57024687
:1003F000C5F31303C1F31300C1F30A5640F480158B
:1004000043F48013A7EB0608101BD64608F2FD380C
:1004100073EB050002D308F1010801E092185B417B
:10042000B8F1000F03DA00200146BDE8F08D00208E
:100430004FF48011064684460EE0171B73EB050748
:1004400005D3121B63EB050306434CEA010C490874
:100450004FEA300092185B4150EA0107EDD152EAB1
:10046000030012D082EA040083EA0501084305D0A4
:10047000101BAB4106D20122002306E000224FF000
:10048000004302E06FF0010253101AEB06004CEB40
:10049000085110EB0A0041EB0B01BDE8F04D00F0F4
:1004A000B8B80EB5C10F80EAE0700844CA07002151
:1004B00040F233438DE80E000A460B4600F0B8F8D0
:1004C00003B000BD0EB540F2334102910021CDE9E9
:1004D00000110A460B4600F0ABF803B000BD70B542
:1004E000C1F30A5201F000450024C1F3130140F2A8
:1004F000FF3341F480119A4201DA002070BD40F2CE
:1005000033439A42A2F2334203DC524200F05FF8D6
:1005100000E090402C43F1D0404270BDC1F30A523C
:1005200010B5C1F3130140F2FF3341F480119A4238
:1005300001DA002010BD40F233439A42A2F2334266
:1005400003DC524200F043F810BD904010BD0000A3
:1005500030B5041E71F1000404DB4FF0004440424A
:1005600064EB0101141E73F1000405DB1C464FF01F
:100570000043524263EB04038B4208BF824230BD0A
:1005800030B5041E71F1000404DB4FF0004440421A
:1005900064EB0101141E73F1000405DB1C464FF0EF
:1005A0000043524263EB0403994208BF904230BDBE
:1005B000202A04DB203A00FA02F100207047914023
:1005C000C2F1200320FA03F3194390407047202A18
:1005D00004DB203A21FA02F00021704721FA02F3ED
:1005E000D040C2F120029140084319467047202AAA
:1005F00006DBCB17203A41FA02F043EAE07306E04B
:1006000041FA02F3D040C2F120029140084319465A
:10061000704710B5141E73F1000408DA401C41F154
:10062000000192185B411A4301D120F0010010BD76
:100630002DE9F04D92469B4611B1B1FA81F202E0EC
:10064000B0FA80F220329046FFF7B2FF04460F4620
:1006500040EA0A0041EA0B0153465A46084313D0C8
:10066000114653EA010019D0C8F140025046FFF785
:10067000AEFF05460E46504659464246FFF798FFE4
:10068000084305D0012004E020463946BDE8F08D3E
:100690000020054346EAE0762C4337430A98630579
:1006A000E40AA0EB08000022FD0A44EA47540A309D
:1006B00002D500200146E9E7010510196941DDE98D
:1006C000084500196941BDE8F04DA2E72DE9F04168
:1006D000054621F000400C46284309D0C4F30A50D7
:1006E00040F23341884205DD28462146BDE8F081CD
:1006F0002846FBE740F2FE31884210DC0CDB4FEA73
:10070000043040EA155050EA053105D0104804F095
:10071000004101430020E9E700200146E6E7A0F29E
:1007200033404642C6F1400228462146FFF740FFCB
:1007300007468846284621463246FFF748FF43468B
:100740003A46FFF766FF3246BDE8F041FFF730BF9B
:100750000000F03F064C074D06E0E06840F0010362
:1007600094E8070098471034AC42F6D3FFF7C6FC74
:10077000583800087838000808B51248007800BBDF
:100780004FF4407000F0B8FB4FF0E020006920F01B
:1007900002004FF0E02108610B48006840F0007053
:1007A0000949086048171D231E221F210090074891
:1007B00002F0B8F900F06AFE02F048FB012001499E
:1007C000087008BD1C00002004ED00E08402002039
:1007D0001CB50020009003460122072101900A4821
:1007E00000F012FA00200090034601220821019037
:1007F000064800F009FA0121034800F034FB01210A
:10080000024800F030FB1CBDA0000020AC0000201E
:1008100000BFFEE7704710B50446204602F0C3FA59
:1008200010BD000010B5012000F004F940B10548EA
:10083000006810B1034908688047012000F0F4F80F
:1008400010BD0000C400002010B54FF4806000F01F
:10085000F1F848B12A48806A10B12949886A80476E
:100860004FF4806000F0E0F84FF4006000F0E2F830
:1008700048B12348C06A10B12149C86A80474FF483
:10088000006000F0D1F84FF4805000F0D3F848B188
:100890001B48006B10B11A49086B80474FF4805019
:1008A00000F0C2F84FF4005000F0C4F848B114480A
:1008B000406B10B11249486B80474FF4005000F074
:1008C000B3F84FF4804000F0B5F848B10C48806BA5
:1008D00010B10B49886B80474FF4804000F0A4F8BA
:1008E0004FF4004000F0A6F848B10548C06B10B1C5
:1008F0000349C86B80474FF4004000F095F810BDE5
:10090000C400002010B5022000F094F840B1054862
:10091000406810B1034948688047022000F084F81D
:1009200010BD0000C400002010B5042000F082F8C3
:1009300040B10548806810B10349886880470420A9
:1009400000F072F810BD0000C400002010B50820AF
:1009500000F070F840B10548C06810B10349C8689C
:100960008047082000F060F810BD0000C40000209F
:1009700010B5102000F05EF840B10548006910B1D4
:10098000034908698047102000F04EF810BD0000B0
:10099000C400002010B5202000F04CF840B12148E0
:1009A000406910B11F4948698047202000F03CF899
:1009B000402000F03FF840B11A48806910B1194951
:1009C00088698047402000F02FF8802000F032F83E
:1009D00040B11448C06910B11249C86980478020ED
:1009E00000F022F84FF4807000F024F848B10D4870
:1009F000006A10B10B49086A80474FF4807000F01C
:100A000013F84FF4007000F015F848B10548406A3B
:100A100010B10449486A80474FF4007000F004F8B0
:100A200010BD0000C40000200149086070470000AC
:100A30001404014001460020034A12680A400AB12A
:100A4000012000E0002070471404014000212349E8
:100A50008279002A3AD00A46126803689A430B4604
:100A60001A600A1D126803689A430B1D1A60027906
:100A700011440A6803681A430A60184A0832126867
:100A800003689A43154B08331A601A1D12680368ED
:100A90009A43124B0C331A604279102A0ED11A1F56
:100AA000126803681A430D4B08331A601A1D126846
:100AB00003681A43094B0C331A600DE00749427969
:100AC00011440A6803681A430A6005E00279114478
:100AD0000A6803689A430A607047000000040140F6
:100AE000F0B50A4600210023002400BF3DE00125A7
:100AF00005FA01F3156805EA03049C4234D1056840
:100B00004F000326BE40B543056015794E00B54041
:100B10000668354305601579012D02D01579022D3F
:100B200016D185684F000326BE40B54385605579D0
:100B30004E00B540866835438560858801268E4025
:100B4000B5438580858896798E40B6B235438580D9
:100B5000C5684F000326BE40B543C560D5794E0039
:100B6000B540C6683543C560491C1029BFD3F0BDE8
:100B7000F0B5002300244D07ED0E02FA05F3CE1068
:100B800000F1200555F826504E07F70E0F26BE40FF
:100B9000B543CF1000F1200646F82750CE1000F1E3
:100BA000200555F8265045EA0304CE1000F1200533
:100BB00045F82640F0BD02460020138A0B400BB1D9
:100BC000012000E000207047418370470183704797
:100BD0000246002111E00B4850F8310090420AD83B
:100BE000084B481C53F83000904204D9184600EBDB
:100BF000C10000797047481CC1B21429EBD300BF73
:100C0000FEE70000B03700082DE9FC4704460D461A
:100C100016461F46DDE90A893B46324629462046EC
:100C2000CDE9008900F002F8BDE8FC872DE9FC471A
:100C300004460D4616461F46DDE90A89681C08B9B8
:100C4000BDE8FC87C5F30F1020812570207800F0E7
:100C50000F01012088406080208906280BDA208956
:100C6000174901EB80206060227A012101FA02F02D
:100C700000F0A0F90CE02089062809D11148606035
:100C8000217A491E012202FA01F0114600F092F980
:100C9000012E03D14946204600F0B8F88DF80460D3
:100CA0008DF806708DF8078003208DF805006088A8
:100CB000009069466068FFF713FF00BFC0E70000BF
:100CC000000002400014024010B504460CB900BFF9
:100CD000FEE794F90000401C08B9002010BD6188AF
:100CE0006068FFF768FFF9E7FEB504460E46154653
:100CF0001F4607B9FEBD207800F00F00424941F8B9
:100D000020700121084600F075F9227802F00F01E9
:100D1000207A01F0B5FD207800F00F010120884015
:100D2000009000208DF80400012E03D108208DF8DA
:100D300005000DE0022E03D10C208DF8050007E020
:100D4000032E03D110208DF8050001E000BFFEE75F
:100D500001208DF806006846FFF778FE207800F045
:100D60000F00052806DA207800F00F00801D8DF8AE
:100D7000080013E0207800F00F000A2803DA17209B
:100D80008DF808000AE0207800F00F00102803DA40
:100D900028208DF8080001E000BFFEE735B90F20DC
:100DA0008DF8090000208DF80A0024E0012D06D1FD
:100DB0000C208DF8090000208DF80A001BE0022DA0
:100DC00006D108208DF8090000208DF80A0012E0F5
:100DD000032D06D104208DF8090000208DF80A00AB
:100DE00009E0042D05D100208DF809008DF80A00D6
:100DF00001E000BFFEE701208DF80B0002A800F023
:100E00003FF800BF76E70000C400002070B504463C
:100E10000D460CB1606808B900BFFEE794F9000008
:100E2000401C00B970BD25B961886068FFF7CCFE31
:100E300003E061886068FFF7C9FE00BFF2E710B504
:100E400004462046FFF740FF10BD2DE9F04104465F
:100E50000D4616461F463B46324629462046FFF7BA
:100E600043FFBDE8F08170B504460D462946204693
:100E7000FFF7CCFF70BD00BFFEE700BFFEE7704785
:100E800070B5002100230F22C4781CB3174C2468CE
:100E900004F4E064C4F5E064C4F30721C1F1040480
:100EA000E3B20A4144789C40E1B284781440214383
:100EB0000C07210E0E4C05786155047804F01F05CF
:100EC0000124AC4005786D11AD0005F1E025C5F8B1
:100ED000004109E0047804F01F050124AC40054DF1
:100EE0000678761145F8264070BD00000CED00E054
:100EF00000E400E080E100E002490143024A1160A1
:100F0000704700000000FA050CED00E02DE9F04705
:100F10000646894614461D46DDE9098A089F0A49A6
:100F2000886A80470948A0F800900288314608483E
:100F3000FFF7FCF8074830C00748C0E900780120F7
:100F400006490870BDE8F087083700080000002057
:100F50008000002008000020100000200200002077
:100F600010B50349886A804703200249087010BD04
:100F7000083700080200002010B50349886A80473E
:100F800002200249087010BD083700080200002046
:100F900004200149087070470200002010B5034981
:100FA000886A804705200249087010BD083700088C
:100FB0000200002029B1064A12680243044B1A605D
:100FC00004E0034A12688243014B1A607047000034
:100FD0001C38024029B1064A12680243044B1A60C9
:100FE00004E0034A12688243014B1A607047000014
:100FF0002438024029B1064A12680243044B1A60A1
:1010000004E0034A12688243014B1A6070470000F3
:101010002038024010B54FF4805000F01FF858B14E
:1010200000F03EF801F0CAFF4FF4805000F006F8DF
:101030004FF40030FFF7F8FC10BD0000002101095B
:101040008AB242F08002044B1B6803F0800363EA1B
:101050000202014B1A6070470C28004030B501466F
:101060000020002200230D4C246804F004020B4CE5
:10107000383C24680C408D0C21FA05F502EAD53580
:1010800044EA0503054C343C246804EA11121BB100
:1010900094B20CB1012000E0002030BD4028004097
:1010A000704721B1028842F04002028004E00288C9
:1010B0004FF6BF731A400280704702460020138922
:1010C0000B400BB1012000E00020704701468889E9
:1010D00070478181704710B50022028802F44152A6
:1010E0000B884C8823438C882343CC8823430C896A
:1010F00023434C8923438C892343CC8923431A43BC
:101100000280838B4FF2FF74234083830B8A038218
:1011100010BD00001CB500200090034602461B21B4
:1011200001900248FFF770FD1CBD00002401002063
:101130001CB50020012103460A46CDE900101B2101
:101140000148FFF761FD1CBD24010020014601207C
:101150007047014680207047014890F89000704722
:10116000300200202DE9F34F95B000210E460F46C6
:10117000159810B101286ED16EE09649D1F8A800FB
:10118000FFF7A0F9CDE912011698FFF79BF9CDE919
:101190000A01302000F0DAFD20F0F90010B1002043
:1011A0008D4901E000200146CDE90601272000F02D
:1011B000CDFD20F0F801491C8648B0F8AC00084489
:1011C0000390FFF76EF9CDE90401824890F8AE0074
:1011D000012802D10020034601E000207E4B024698
:1011E000CDE90203DDE90401FEF7D3FF8046DDE926
:1011F0000623FEF7CEFFCDE90801DDE90A23FEF75D
:10120000C8FFCDE90C01734890F8AF00012803D165
:1012100000204FF0804101E0002001468046424618
:101220000B46DDE90C01FEF7B4FF00226B4BCDE964
:101230000E01FFF755F8CDE91001DDE91223FFF7A4
:10124000C1F882460022664BFFF74AF8044602F0D6
:101250000BFA06460F46B7E00020044605465D48F7
:10126000D0F8DC0020B1012805D0022809D105E022
:1012700000245C4D05E000245B4D02E000245B4D42
:1012800000BF00BF534991F8E020012101FA02F0AC
:10129000FFF707F9804642460B4620462946FFF7EE
:1012A00091F8CDE9120100204B49DDE91223FFF747
:1012B00089F8CDE910014749B1F8E600FFF702F9D6
:1012C000804600224A4BFEF764FF8246DDE9102388
:1012D000FFF706F8CDE90E013E4991F8E510081D2B
:1012E000FFF7DFF8CDE904013A49D1F8E0108A00B0
:1012F000384991F8E410002901DD082100E00021BF
:10130000501AFFF7DFF8CDE900011699CA003149FC
:10131000D1F8E010042303FB11221C322D4991F86F
:10132000E910102303FB01222A4991F8E81009B1C2
:10133000142100E00021501AFFF7C4F88246DDE9CD
:101340000023FFF73FF8CDE9020101F07FFF80465F
:10135000DDE90423FEF7C4FFCDE90C0100221346AA
:10136000DDE90C01FFF70CF902D2DDE90C0101E027
:1013700000200146804642460B4600201749FEF7F2
:1013800008FFCDE90A01DDE91023DDE90A01FEF7D6
:10139000A7FFCDE90801DDE90823DDE90E01FEF72D
:1013A000F8FECDE9060100220D4BDDE90601FEF74E
:1013B00097FF80460F4A104BFEF7EBFE824601F086
:1013C000B3FF06460F4600BF00BF3046394617B090
:1013D000BDE8F08F300200200000F03F0000204008
:1013E00080842E418084FE4080840E4180841E4192
:1013F000000011402B8716D9CEF7EF3F70B5054698
:101400001A4805601A491B4801F084FD18491A481A
:1014100001F080FD1649194801F07CFD00F010FD37
:10142000002000F039FE164800F076F8002412E0A3
:1014300004EB4401134A505C00F0E6FD04EB440267
:10144000104B1A44917804EB44021A44507801F08E
:10145000E3F9601CC4B20F2CEAD3002000F0D4FDE5
:101460000020094981F8900070BD0000580000205C
:10147000591C0008380300204C03002060030020A2
:101480005C00002050370008300200201CB501200D
:101490000090002302461C2101901E48FFF7B4FB78
:1014A0000020012103460246CDE900100A21194817
:1014B0007038FFF7A9FB0020012103460246CDE961
:1014C0000010092113486438FFF79EFB002001211A
:1014D00003460246CDE900102D210E485838FFF78B
:1014E00093FB0020012103460246CDE900101021A4
:1014F00008484C38FFF788FB0020012103460246CC
:10150000CDE90010142103484038FFF77DFBFFF7B9
:101510000FFE1CBDAC02002010B5044603220121C1
:1015200010482368FFF791FC032201210D480C307D
:101530006368FFF78AFC032201210A481830A36878
:10154000FFF783FC0322012106482430E368FFF7FC
:101550007CFC03220121034830302369FFF775FC2E
:1015600010BD00003C0200202DE9F04782460C46E9
:10157000914600BF504600F047FD204600F01EFD9A
:10158000052000F089FD0120FFF745F9504600F0E5
:1015900015FC05460E4600F073FF4846FEF781FF36
:1015A00007462A463346FEF7D3FF02D20020BDE8A5
:1015B000F0870120FBE700002DE9FF4700200390A2
:1015C000E54890F89000012802D002287DD19EE1E4
:1015D000E14890F8910010B1012877D1CFE03F2089
:1015E00000F0B4FB03909DF80C0000F0020002280C
:1015F00035D00B213E2001F00FF910213F2001F0E2
:101600000BF9D54890F8B10038B90020D24981F8DB
:101610009000D24801F054FD08E00D2000F096FB48
:1016200040F0400421460D2001F0F6F8CC4801F0CE
:1016300089FDCC48006838B1CA480068006918B113
:10164000C8490968086980470021C34880F8B81074
:1016500080F8B910A0F8D010A0F8CE1055E1BE481F
:10166000B0F8CE0098BBBC48B0F8D00078BBBA4800
:1016700090F8AE0028B90121B748CE3000F094FBB5
:1016800006E0322000F062FB0146B348A0F8CE101D
:10169000B14A92F8CE3092F8D0209A1AD1B2AE4A1E
:1016A000B2F8D020B04BD01800F07EFBAA48B0F8BA
:1016B000CE10B0F8D000091AA748B0F8D0000844FE
:1016C00081B2A548A0F8D0101EE041E11CE1FFE77F
:1016D000A14A92F8CE3092F8D0209A1AD1B29E4AFE
:1016E000B2F8D020A04BD01800F05EFB9A48B0F8BA
:1016F000CE10B0F8D000091A9748B0F8D0000844CE
:1017000081B29548A0F8D010934890F8B10038B94C
:101710000020914981F89000904801F0D1FC08E048
:101720000D2000F013FB40F0400421460D2001F095
:1017300073F88B4801F006FD8A480068A0B189481B
:101740000068806880B1002002900090019082487B
:101750009030D0E90C539038B0F8CE108148006832
:101760002A4684688048A04700217B4880F8B8104A
:1017700080F8B910A0F8D010A0F8CE10C5E04FF056
:10178000000A4021122001F047F8122000F0DEFA92
:1017900003909DF80C0000F0200020281AD1202191
:1017A000122001F039F86C4890F8EB0018B90020CD
:1017B000694981F890006A4801F0C4FC69480068F2
:1017C00038B168480068006918B166490968086955
:1017D00080479AE0192000F0B9FA82460AF08000AA
:1017E00090B16FEA0A00401CC0F38500FEF759FE75
:1017F000594A9032C2E918011146D1E9180181F025
:101800000041C2E9180107E04FEA9A00FEF749FEDD
:10181000514A9032C2E918014F48903000221346D5
:10182000D0E918412046FEF793FE20D24A48D0F86E
:10183000DC004E4901EBC000D0E9006332460020D5
:101840004B49FEF7A6FC044600224A4BFEF7A1FCDA
:101850008046894640499031D1E91843224649469D
:10186000FEF797FC3C4A9032C2E91A0118E01A20B0
:1018700000F06CFA0646FEF725FE04460D46364893
:10188000D0F8DC003C4901EBC000D0E900633246EF
:1018900020462946FEF77DFC2F4A9032C2E91A0104
:1018A000132000F053FA01462B4880F8001190F8FD
:1018B00000112D4800F078FA274890F8EB0018B98D
:1018C0000020254981F89000254801F03BFC25487F
:1018D0000068C0B1234800688068A0B11E489030FD
:1018E000CDF808A0416E006E1B4AF032CDE9000130
:1018F000194890F800111B48D2E9025300682A46A3
:1019000084681948A04700E000BF00BF21E01B48E1
:1019100001F018FC104890F8910038B1012804D16A
:101920000821122000F078FF00BF00BF00200A4904
:1019300081F890000B48006838B10A4800680068D8
:1019400018B1084909680868804700BF00BF00E077
:1019500000BF00BFBDE8FF87300200206003002009
:101960004C03002058000020300100209837000868
:1019700000C065C000001840803700083803002010
:1019800010B5634890F89000012802D002286FD16A
:1019900073E05F4890F8910010B101286AD154E0DB
:1019A0005B48B0F8CE00A0B95948B0F8D00080B973
:1019B000574890F8AE0028B901215548CE3000F0C4
:1019C000F3F906E0322000F0C1F901465048A0F8D2
:1019D000CE104F48B0F8CE10B0F8D000091A4C48DD
:1019E00090F8D200814213DD494A92F8D210B2F841
:1019F000D020484BD01800F0D7F94548B0F8D010A7
:101A000090F8D200084481B24148A0F8D0101BE001
:101A10003F4A92F8CE3092F8D0209A1AD1B23C4A7E
:101A2000B2F8D0203B4BD01800F0BEF93848B0F8DF
:101A3000CE10B0F8D000091A3548B0F8D0000844EC
:101A400081B23348A0F8D01015E0334801F07AFB9A
:101A500000202F4981F890003048006838B12F48A5
:101A60000068C06818B12D490968C868804702E05D
:101A70004AE0FFE700BF00BF47E0254890F891002B
:101A800010B101283DD13BE02148B0F8CE10B0F8AC
:101A9000D000091A1E4890F8D300814213DD1C4A79
:101AA00092F8D310B2F8D0201A4BD01800F0DEFE16
:101AB0001748B0F8D01090F8D300084481B2144809
:101AC000A0F8D0101BE0124A92F8CE3092F8D02045
:101AD0009A1AD1B20E4AB2F8D0200E4BD01800F0AC
:101AE000C5FE0B48B0F8CE10B0F8D000091A08486F
:101AF000B0F8D000084481B20548A0F8D01001E049
:101B000000E000BF00BF00E000BF00BF10BD00004C
:101B100030020020300100204C030020580000203B
:101B20002DE9FC47374890F89000012802D00228A0
:101B300063D156E0334890F8910010B101284DD19F
:101B40004BE0304890F8B800012845D12D4890F876
:101B5000B900002840D12C4801F0F4FA01212948AD
:101B600080F8B910112000F0F1F80646FEF7AAFC43
:101B7000044600224FF08043FEF724FC0A4601464B
:101B800082F000421F489030C0E90C121C2000F087
:101B9000DDF882461B2000F0D9F84AEA00294846C1
:101BA000FEF77FFC0746FEF79AFC0446FEF779FC39
:101BB00005460022154BFEF793FBCDE90001FEF729
:101BC0008EFC01460F48C0F8C8100C2000F0BEF88B
:101BD00041090C4880F8CC1001E000E000BF00BFD4
:101BE0000CE0084890F8910010B1012802D100E003
:101BF00001E000E000BF00BF00E000BF00BFBDE8A3
:101C0000FC870000300200206003002080844E40EA
:101C1000054890F8910010B1012802D100E001E0E0
:101C200000E000BF00BF704730020020094890F874
:101C3000910010B101280AD108E0064890F8B800D8
:101C400018B90121034880F8B81001E000E000BF96
:101C500000BF70473002002070B50024284890F87B
:101C60009000012802D0022843D136E0244890F8A1
:101C7000910010BB0021224880F8B81080F8B910FC
:101C8000A0F8D010A0F8CE100B213E2000F0C4FD2B
:101C900010213F2000F0C0FD194890F8B100012844
:101CA0000CD1174890F890400D2000F04FF840F00C
:101CB000400529460D2000F0AFFD02E0114801F07B
:101CC000FFF91148006838B10F480068006918B181
:101CD0000D490968086980470CE00B48006838B175
:101CE00009480068406818B1074909684868804792
:101CF00000E000BF00BF024880F8904070BD0000C7
:101D000030020020600300205800002070B500253C
:101D1000012000F079F9FF21112000F07DFD052060
:101D200000F0BAF900240BE00120FEF774FD2C202E
:101D300000F00CF800F00100A0400543601CC4B2A4
:101D4000202CF1DB00F09CFB284670BD38B5044622
:101D500001226946204600F003F89DF8000038BDD6
:101D60002DE9F04105460E46174600210D48FFF7C4
:101D70007AF805F07F010B48283800F0B5FE002402
:101D800007E000210748283800F0AEFE3055601CFF
:101D9000C4B2BC42F5DB01210248FFF764F8BDE89C
:101DA000F0810000AC02002070B504460D462A46C2
:101DB00021460020FFF7D4FF70BD00002DE9F04759
:101DC000824600BFBAF1000F03D0BAF1010F28D14B
:101DD0000FE01120FFF7BAFF8046FEF773FB0646BF
:101DE00000224FF08043FEF7EDFA81F000450446F3
:101DF0001AE01B20FFF7AAFF0646FEF763FB8046AA
:101E000089460C48D0F8DC000B4901EBC000D0E952
:101E10000063324640464946FEF7BBF904460D468C
:101E200002E00024054D00BF00BF20462946BDE862
:101E3000F0870000300200208037000800E06F408B
:101E40001CB5012000210B460246CDE900101221ED
:101E50000948FEF7D9FE0120FEF7DDFC0120002134
:101E60000B460A46CDE9001012210348FEF7CCFECE
:101E70000620FEF7D0FC1CBD3002002073B50446DE
:101E80000025364890F8910010B1012860D139E062
:101E900000213248A0F8D0109DF80410A0F8CE1010
:101EA00090F8AE0020B9012101A800F0DFFC04E0A9
:101EB0009DF80410322000F0AFFC9DF804000028CB
:101EC00009DD9DF80400402805DC9DF80410234836
:101ED00080F8D31003E02021204880F8D3101F4859
:101EE00090F8D310204600F0C1FC1C48B0F8D01088
:101EF00090F8D300084481B21848A0F8D010D0F868
:101F0000B45025E09DF80410144880F800119DF8A5
:101F10000410222000F080FC00210E2000F07CFC48
:101F200000210D2000F078FC0120FFF70FFF20F0CA
:101F3000F80020B900F0B4FA0120FEF76CFC9DF81F
:101F40000410204600F092FC0448D0F8EC5000BF8A
:101F500000BF284600F0B4FA7CBD0000300200202B
:101F600010B504460A4890F88800A04200D110BD80
:101F7000074880F8884024B101210648FEF773FF26
:101F800003E000210348FEF76EFF00BFEFE700000B
:101F9000300200202401002010B5044606480078D5
:101FA000A04207D00448047014B9FFF7C1F801E05B
:101FB000FFF7B0F810BD00001D0000202DE9F04132
:101FC00004460F48C0F894402046FEF77BFA0546C9
:101FD00000220C4BFEF7F6F90746FEF79FFA04467F
:101FE000C4F30741062000F017FCC4F307210720C3
:101FF00000F012FCE1B2082000F00EFCBDE8F08118
:102000003002002080844E4070B504462148406D67
:1020100008B900BFFEE71F4890F89100A04200D128
:1020200070BD1C4880F8914090F8910010B10128D3
:1020300015D000BF002000F02FF80120FFF786FE2A
:1020400000F07F052946012000F0E6FB002140203A
:1020500000F0E2FB3021412000F0DEFB16E0002022
:1020600000F01AF80120FFF771FE00F07F0040F049
:1020700080052946012000F0CFFB0021402000F020
:10208000CBFB0021412000F0C7FB00BF00BF00BF19
:10209000C6E700003002002070B504461148007801
:1020A00084421DD00F4804701CB90120FFF774FF53
:1020B0000BE00020FFF770FF032C03D10120FFF796
:1020C0004FFF02E00020FFF74BFF0120FFF73EFE2D
:1020D00000F0F80040EA04052946012000F09CFBCE
:1020E00070BD0000740000202DE9F04F8FB08246D3
:1020F0004FF0000B5E4890F8910010B1012845D1D7
:102100002BE05B4890F8B1B04020FFF71FFE00F0D5
:10211000330040F00C042146402000F07DFB4120BC
:10212000FFF714FE00F03E0040F0C000441C2146C2
:10213000412000F071FB3520FFF708FE00F03F0161
:102140004B4880F8D210002180F8B81080F8B91000
:10215000A0F8D010A0F8CE1018E0454890F8EBB0E9
:102160001F21112000F058FB4020FFF7EFFD00F089
:102170003F042146402000F04FFB00210F2000F0DB
:102180004BFB00210D2000F047FB00BF00BF4FF4C8
:1021900080713848FDF7E3FF0120354981F8900050
:1021A000BAF1000F06D05146334800F079FF3248AB
:1021B00000F086FF2E4890F8910000284AD10520B3
:1021C000FFF76AFFBBF1000F4ED12949D1F8A800F3
:1021D000FEF778F9CDE908012720FFF7B7FD20F0D9
:1021E000F8000190FEF75DF980460022234BFDF7D1
:1021F000D0FF06460F461E49B1F8AC00FEF762F963
:1022000032463B46CDE90201FDF7C3FF04460022FA
:102210001A4BFDF7BEFF0022194BCDE90401FEF772
:102220005FF8CDE90601DDE90823FEF7CBF80022CF
:10223000144BCDE90A01FEF753F8CDE90C01FEF786
:102240006DF901460E90104800F02AFF0E4800F08C
:1022500037FF09E0BBF1010F03D10520FFF71CFF99
:1022600002E00620FFF718FF0FB0BDE8F08F000076
:1022700030020020300100204C0300200000F03F1D
:102280000000204080842E41600300202DE9FF4F94
:1022900085B00D4614469946DDE9168A159F139EB2
:1022A0000598FFF7B1FE059810B1012854D154E00C
:1022B0007148C0F8A050C0F8A8401299C0F8A41006
:1022C00080F8AE7080F8AF8080F8B0A0189980F8E0
:1022D000B110A0F8AC602046FEF7F4F802460B46B9
:1022E000CDE9000100206549FEF76CF8CDE9020157
:1022F000FEF714F984B2210A022000F08DFAE1B24F
:10230000032000F089FA2846FEF762FC834659460E
:10231000122000F081FA1298FEF75AFC83465946C3
:10232000132000F079FA310A202000F075FAF1B29A
:10233000212000F071FA3020FFF708FD00F06F0057
:10234000012F01D1002100E08021084340EA081B51
:102350005946302000F060FA8AE04748C0F8DC5067
:10236000C0F8E04080F8E59080F8E87080F8E980F7
:1023700080F8EAA0189980F8EB100C2C01D90C24F5
:1023800002E0062C00D206241DB90B2C05D00C2C23
:1023900003D0012D06D10C2C04D10121364880F840
:1023A000E41003E00021344880F8E4101D20FFF71A
:1023B000CDFC002040EA851040EAC90040EA8700D1
:1023C00040EA48012C4890F8E400014301F0FF0B7B
:1023D00059461D2000F020FA1E20FFF7B7FC00F040
:1023E0000C0040EA04100322149902EA2121084358
:1023F00000F0FF0B59461E2000F00EFA1498C1B2EF
:102400001F2000F009FA310A202000F005FAF1B28D
:10241000212000F001FA062C0FD13120FFF796FCA5
:1024200000F0F80000F1050B5946312000F0F4F9F6
:102430000C21372000F0F0F90EE03120FFF786FC88
:1024400000F0F80000F1030B5946312000F0E4F9E8
:102450000A21372000F0E0F93320FFF777FC00F085
:10246000BF0040EA8A1B5946332000F0D5F900BF6F
:1024700000BF09B0BDE8F08F3002002080847E41AB
:1024800010B5054800F05EFE044800F05BFE002039
:10249000FFF702FE10BD00004C03002038030020AF
:1024A00010B5054800F04EFE044800F04BFE012038
:1024B000FFF7F2FD10BD00004C03002038030020A0
:1024C00070B504462146204800F0EAFD1F4890F808
:1024D000910010B101282BD11AE04020FFF736FC03
:1024E00000F033052946402000F096F94120FFF71F
:1024F0002DFC00F03E052946412000F08DF93520E5
:10250000FFF724FC00F03F01104880F8D2100FE0E4
:10251000F721112000F080F94020FFF717FC00F0B0
:102520003F0040F040052946402000F075F900BF0B
:1025300000BF0220054981F89000034800F0C0FD6B
:102540000320FFF7A9FD70BD3803002030020020F2
:102550002DE9FF4F85B00C4691461E46DDE915ABCF
:10256000149F129D4FF00008002004900598FFF77B
:102570004BFD0920FFF7EAFB80465A20FFF7E6FBF8
:102580000490A249D1F89400FEF7E3FD08F07F0122
:1025900040EA010808F0800080282DD1112C05DDCB
:1025A000049800F0F800C01D049004E0049800F0C6
:1025B000F800001D0490049800F0070007280DD1D2
:1025C000052C00DA0524142C00DD142408F0F0009A
:1025D000611F01F00F0140EA01081CE0022C00DA43
:1025E0000224112C00DD112408F0F000A11E01F0DE
:1025F0000F0140EA01080EE0B4F1FF3F01DA4FF0AD
:10260000FF340E2C00DD0E2408F0F000611C01F0F8
:102610000F0140EA01084146092000F0FDF85A2068
:10262000049900F0F9F8059810B1012861D161E032
:10263000764880F89840C0F89C90C0F8A060C0F838
:10264000A850A0F8AC7080F8AEA080F8AFB0179991
:1026500080F8B0101899C0F8B4104846FDF732FF62
:1026600000226B4BCDE90001FDF7ACFECDE9020184
:10267000FDF754FF1FFA80F94FEA1921042000F0FA
:10268000CBF809F0FF01052000F0C6F82846FDF759
:1026900019FF02460B46CDE9000100205D49FDF718
:1026A00091FECDE90201FDF739FF85B2290A02202A
:1026B00000F0B2F8E9B2032000F0AEF8390A2520A4
:1026C00000F0AAF8F9B2262000F0A6F83020FFF7B3
:1026D0003DFB00F06F00BAF1010F01D1002100E0D5
:1026E0008021084340EA0B1001460390302000F09F
:1026F00093F887E0454880F8D840C0F8DC60C0F81F
:10270000E050139980F8E510A0F8E67080F8E8A092
:1027100080F8E9B0179980F8EA101899C0F8EC1021
:102720000C2D01D90C2502E0062D00D206251EB97C
:102730000B2D05D00C2D03D0012E06D10C2D04D16C
:102740000121324880F8E41003E000212F4880F88E
:10275000E4101D20FFF7FAFA002040EA86111398D2
:1027600041EAC00040EA8A0040EA4B01274890F85D
:10277000E4000143C8B2014603901D2000F04CF86C
:102780001E20FFF7E3FA65F31F10C0B20146039065
:102790001E2000F041F8390A202000F03DF8F9B27F
:1027A000212000F039F8062D0FD13120FFF7CEFAA5
:1027B00000F0F800401D01460390312000F02CF895
:1027C0000C21372000F028F80EE03120FFF7BEFA88
:1027D00000F0F800C01C01460390312000F01CF806
:1027E0000A21372000F018F83320FFF7AFFA00F085
:1027F000BF01179841EA801001460390332000F092
:102800000BF800BF00BF09B0BDE8F08F3002002018
:1028100080844E4080847E4113B50446012201A984
:10282000204600F001F81CBD2DE9F04105460E469A
:10283000174600210C48FEF716FB45F080010A48B8
:10284000283800F051F9002406E0315D06482838A8
:1028500000F04AF9601CC4B2BC42F6DB0121024818
:10286000FEF701FBBDE8F081AC02002070B5044624
:102870000D462A4621460020FFF7D6FF70BD000016
:1028800030B500228B071C0F0F2303FA04F20B4B09
:102890008C1053F824309343084C8D1044F82530A5
:1028A00023468C1053F824308C07240F00FA04F4CC
:1028B0002343024C8D1044F8253030BD0800014000
:1028C0000CB50020019000903E48006840F4803034
:1028D0003C49086000BF3B48006800F400300090AD
:1028E0000198401C0190009818B90198B0F5A06FAC
:1028F000F1D13448006800F4003010B1012000909C
:1029000001E0002000900098012859D12E4800686D
:1029100040F004002C4908600846006840F00200BE
:1029200008600846006840F001000860254824302F
:10293000006840F08050234924310860C8142349BE
:10294000086000BF2148406800F010000028F9D15D
:102950001C48083000681B490831086008460068B8
:1029600008600846006808600846006820F47D009A
:1029700008600846006840F40900086011480068D3
:1029800040F080700F49086000BF0E48006800F0FA
:1029900000700028F9D00B480830006820F00300D0
:1029A0000849083108600846006840F003000860E4
:1029B00000BF04480830006800F00C000C28F8D173
:1029C0000CBD000000380240003C02400070004096
:1029D0002DE9F04104460D4616461F46DDF81880E5
:1029E00000212068FEF75DFB082D01D0102D01D1DC
:1029F000012000E0002078B1002E03DB012E01DC75
:102A0000012000E0002038B1002F03DB012F01DCA2
:102A1000012000E0002008B900BFFEE7B8F1010F77
:102A200001D1002001E04FF4827010494880012E4E
:102A300001D1022000E000200C49C880012F01D103
:102A4000012000E0002009490881082D01D1002063
:102A500001E04FF40060054988802068FEF73BFBE9
:102A600001212068FEF71DFBBDE8F0810401002074
:102A700070B505460E4600212868FEF712FB18487F
:102A80000068B0FBF6F40CB1601E00E000200446C4
:102A900044EA540444EA940444EA141444EA14242E
:102AA00044EA1444641C204641420140B1FA81F1D9
:102AB000C1F12001C9B24C1E072C01D9072000E04A
:102AC000204604464FF6FF7000EAC400054988819D
:102AD0002868FEF700FB01212868FEF7E2FA70BDC6
:102AE000380000200401002070B504460D460CB1EA
:102AF000206808B900BFFEE700BF02212068FEF78A
:102B0000DCFA0028F9D029462068FEF7E2FA00BF77
:102B100001212068FEF7D1FA0028F9D02068FEF7DD
:102B2000D5FA70BD2DE9FC410446884616461F467D
:102B3000089D0020022103460A46CDE900104146C7
:102B4000201DFEF761F80020022103460A46CDE968
:102B50000010314604F11000FEF756F80020022163
:102B600003460A46CDE90010394604F11C00FEF781
:102B70004BF8227902F00F010522A068FDF7F8FF5B
:102B8000227C02F00F0105226069FDF7F1FF227F30
:102B900002F00F010522206AFDF7EAFF681C90B1E0
:102BA00001200090002302222946019004F1280010
:102BB000FEF72AF894F8282002F00F010522E06AB7
:102BC000FDF7D6FF03E04FF4007012494881124828
:102BD000206001210014FEF7FDF9681C40B90020B7
:102BE00003460246082100902046FFF7F1FE07E069
:102BF000012000231A46082100902046FFF7E8FE36
:102C000006492046FFF734FF01212068FEF749FA04
:102C1000BDE8FC81040100200038004040420F0064
:102C200010B51548006840F48070134908601248D8
:102C300008300068114908400F49083108600E4803
:102C400000680F4908400C4908600846006820F4F5
:102C50008020086008480830006820F47D0006499C
:102C6000083108600020091D0860FFF729FE4FF0B9
:102C700000600449086010BD003802400CC0FF88A5
:102C8000FEFFFEEE08ED00E010B50121880700F020
:102C900028F888B100F030F9084801684068084A0F
:102CA0001368526859405040014301D100F086F941
:102CB0000121880700F006F810BD00002000002068
:102CC00030000020CA430282704721B1028842F0DE
:102CD0000102028004E002884FF6FE731A4002806F
:102CE000704730B50246002000230024158A05EA0B
:102CF0000103958905EA010413B10CB1012000E03C
:102D0000002030BD1AB183890B43838102E083899F
:102D10008B4383817047000000220288B0F1804F0E
:102D200008D0104B984205D00F4B984202D00F4B61
:102D3000984204D14FF68F731A404B881A430C4BBC
:102D4000984207D00B4B984204D04FF6FF431A40ED
:102D50000B891A4302804B68C3620B8803850123E9
:102D6000838270470004004000080040000C0040CF
:102D7000001000400014004002460648016804E0CC
:102D8000914201D10120704709690029F8D1002042
:102D9000F9E700007C00002010B5002400F026F8C0
:102DA0000446204610BD2DE9F043044600BF00BF95
:102DB0004FF47A7104FB01F5002600F03BF807465A
:102DC000884600BF00F036F8C01B61EB08016423A1
:102DD0004FF0000CA0FB032901FB039100FB0C103A
:102DE000511BB041EED3BDE8F083704730B500F021
:102DF00021F8094B0CCB821A61EB0301501C41F105
:102E0000000164230022A0FB034501FB035100FBEA
:102E10000211204630BD00002800002070B50020BF
:102E2000034900F013FA0446FDF778FB70BD00007B
:102E30000000694000BF72B603480268436862B68A
:102E40001046194670470000200000201FB50121E0
:102E50000846FEF7BFF81C208DF80C0000208DF806
:102E60000D008DF80E0001208DF80F0003A8FEF76D
:102E700007F800210D4A1160516040F67F40019033
:102E80000020ADF80000ADF80800ADF8020069467A
:102E90004FF08040FFF740FF012211469007FFF7F7
:102EA00031FF01218807FFF710FF1FBD3000002010
:102EB00010B50446FFF7BEFF0D4A03C2652C09D8C2
:102EC0000B48D0E90010491C40F10000094A11608C
:102ED00050600BE0601E6421B0FBF1F0044B0CCBA2
:102EE000801843F10001034A1060516010BD0000DA
:102EF000280000203000002072B6054803684068B2
:102F00005A1C40F1000002490A60486062B67047EE
:102F1000200000200022026042600272C160026153
:102F20007047000070B504460E460848056825B194
:102F30002068301A28600020287225610120207244
:102F400002480460006800F09FF870BD7C0000201B
:102F5000F0B50C4600250022174E336836683169FB
:102F600031B90668361B066018610026066122E04A
:102F700025460E6832191BE0066896420AD206689A
:102F8000761B066019B10E680768F61B0E601861A3
:102F900001610FE00B46096939B915460668761BD1
:102FA000066018610026066104E015460E6832448A
:102FB000002BE1D100BFF0BD7C00002070B50025E2
:102FC000FFF7EAFE054600241F4800680068A84293
:102FD00004D200201C490968086006E01A4800680D
:102FE0000068401B184909680860174804680CE02D
:102FF00015480068006928B1134800680069124943
:10300000086002E00020104908600F48006820B105
:103010000D48006800680028EAD004E0E06808B1C4
:10302000E0688047246914B120680028F6D006487B
:10303000006838B101200449096808720248006834
:1030400000F022F870BD00007C00002010B50C4894
:10305000006898B10A480068007A01280ED1094832
:103060000078052805DA07480078401C05490870F3
:1030700004E0002003490870FFF7B7FE10BD000010
:103080007C0000207800002010B504460020034991
:1030900008702068FFF70CFF10BD000078000020CA
:1030A00070B505460C460026284600F04BF8FFF7A1
:1030B000B5FE0646B44200D234462C606C6070BD4A
:1030C00070B504460025002672B61CB12046FFF7F5
:1030D00053FE08B162B670BD6068206000202072A7
:1030E0001748006820B920462168FFF71BFF23E03E
:1030F00013480068007A01280FD1FFF74DFE0546FE
:103100000F4800680068A84202D20D4800680568B0
:103110000B4800680068461B02E009480068066822
:103120002068B04204D231462046FFF7FBFE03E0A0
:1031300031462046FFF70CFF62B600BFCBE7000028
:103140007C0000202DE9F041054672B64FF00008E2
:103150000026344807680468006800B115B962B6F3
:10316000BDE8F0812F480068A84244D12D4800688E
:10317000007A01282AD1FFF70FFE804628684045D3
:1031800001D2D5F800802868A0EB08062548006821
:103190000069B8B100202349096808722148006815
:1031A00000692049086008460068006830440968E2
:1031B000086001201B49096808721A480068FFF777
:1031C00063FF2CE000201749086028E015480068DC
:1031D000006960B12E6813480068006911490860F1
:1031E00008460068006830440968086017E000205D
:1031F0000C49086013E02E680EE0AC420AD1206949
:1032000028B124693C6120683044206001E000243A
:103210003C6103E027462469002CEED100BF62B672
:1032200000BF9DE77C00002000BFFEE702E008C869
:10323000121F08C1002AFAD170477047002001E030
:1032400001C1121F002AFBD1704700002DE9F04197
:10325000C1F30A52A2F2FF362F4A304B0D46044604
:10326000142E2FDA002E12DAFCF793FF00221346F9
:10327000FDF786F94CD2002DBCBF4FF0004500246D
:1032800046DB55EA040018BF254D19D140E0DFF8B0
:1032900094C02CFA06F705EA070C5CEA040C08BF98
:1032A000BDE8F081FCF775FF00221346FDF768F9D1
:1032B0002ED2002D03DD4FF48010F0400544BD43B5
:1032C000002425E0332EC8BFBDE8F081A6F1140C20
:1032D0004FF0FF3727FA0CF73C4208BFBDE8F081FA
:1032E000FCF7FBFF00221346FDF74AF910D2002D30
:1032F0000DDD142E08BF6D1C09D0C6F1340001216C
:1033000001FA00F02044A04238BF6D1C0446BC43C3
:1033100029462046BDE8F0819C7500883CE4377E54
:103320000000F03FFFFF0F002DE9F041C1F30A520A
:10333000A2F2FF362F4A304B0D460446142E2FDAE8
:10334000002E12DAFCF725FF00221346FDF718F9CC
:103350004CD2002DA4BF0024254647DA25F00040BA
:10336000204318BF254D41D018E0DFF894C02CFA57
:1033700006F705EA070C5CEA040C08BFBDE8F0811B
:10338000FCF707FF00221346FDF7FAF82ED2002DB6
:1033900003DA4FF48010F0400544BD43002425E0DB
:1033A000332EC8BFBDE8F081A6F1140C4FF0FF37F3
:1033B00027FA0CF73C4208BFBDE8F081FCF78DFF0F
:1033C00000221346FDF7DCF810D2002D0DDA142E82
:1033D00008BF6D1C09D0C6F13400012101FA00F0CC
:1033E0002044A04238BF6D1C0446BC4329462046F9
:1033F000BDE8F0819C7500883CE4377E0000F0BF9A
:10340000FFFF0F0088B00125FDF7B6F9FDF7E0F9E1
:1034100084488549086085488860854848608548B3
:10342000C86085480861854801687F4888478348A7
:10343000816883488847834800210122CDE903122F
:10344000CDE90510082011460922CDE9002102909E
:103450007A4800231A46142186690120B0470120CA
:103460000021CDE90310CDE9051005200821002237
:10347000CDE900210290714801230922002146690B
:103480001846B0476D48016B6F488847C8E06F48E1
:10349000007806287CD2DFE800F0BF038D8E7CB672
:1034A000012D41D16A48008800286DDD0422694958
:1034B0006948FCF75FFE30BB6848FDF7C0FC80F050
:1034C000010631466548FDF7CEFC50206249087080
:1034D000492048704E2088704720C870042404E0BA
:1034E000201F5D490855601CC4B2594800888442B9
:1034F000F6DB0120FDF78FF9554801784F48426A05
:103500005548904740E0042255495348FCF732FEA5
:10351000002839D1002501215248FDF7A4FC474875
:10352000016B494888472FE04948008800282BDD77
:1035300004224B494848FCF71DFE28BB4748FDF7CD
:103540007EFC80F0010631464448FDF78CFC50209B
:10355000414908704F2048704E2088704720C8703D
:10356000042404E0201F3C490855601CC4B23848BC
:1035700000888442F6DB0120FDF74DF934480178DC
:103580002E48426A3448904700203049087044E091
:1035900041E03448FDF753FC80F0010631463148E4
:1035A000FDF761FC2548016B274888470020274923
:1035B000087032E000BF012D1DD15020264908704F
:1035C000492048704E2088704720C870042404E0C9
:1035D000201F21490855601CC4B21D480088844240
:1035E000F6DB0120FDF717F9194801781348426A04
:1035F0001948904703E01148016B134888470020A1
:103600001249087009E00D48016B0F4888470020F7
:103610000E49087001E000BF00BF00BFFFF716FDB4
:1036200035E70000910F00088C0000200D0F000806
:103630009D0F0008790F0008610F00080837000887
:103640008025DB33C0C62D0040420F000200002061
:10365000000000200137000880000020A0000020AA
:10366000FC360008AC0000202DE9F04D07460E4660
:10367000FDF72CF804460D463A463346FCF72DFE7E
:10368000DFF86CA0DFF86CB01B4B0746884616F0DD
:10369000004F4FF000020AD0FCF75AFF0AD900226F
:1036A0005B4638464146FCF76BFF1BD212E0FCF745
:1036B0004FFF08D20022534620462946FCF70AFE57
:1036C00004460D460EE000225B4638464146FCF7B4
:1036D00057FF07D80022534620462946FCF759FDDC
:1036E00004460D463146204665F31E01BDE8F08DC7
:1036F0000000F03F0000E03F0000E0BF50494E47AF
:1037000000504F4E47000000FD13000859110008FB
:10371000BD1F0008691500080D1D00088D22000856
:10372000512500084D110008651100087D1E000894
:1037300081240008A1240008E9200008BD1D00081C
:10374000192800084D1D000829280008611D0008DF
:10375000000C23000D1E000ED2001FAA002407003B
:1037600027120028C1002994002AC10030D8003552
:103770008F003B0200400000413001234000000068
:1037800000000000002061C00000000000A060C038
:103790000000000000C05FC0689F1A790B7C4940A0
:1037A000F01467FB5CFD4A40788AB37DAE7E4C40E6
:1037B000280A0000170000001C0C00000F00000089
:1037C0003C0F00000700000050140000160000002D
:1037D0009C1800000E000000781E0000060000008B
:1037E000A028000015000000D43000000D000000EB
:1037F000F03C0000050000004051000014000000F3
:10380000A86100000C000000447A000004000000E1
:10381000E4A200001300000050C300000B000000F1
:1038200024F40000030000008545010012000000A0
:10383000A08601000A00000048E801000200000024
:103840002C8B020011000000400D03000900000055
:1038500090D003000100000078380008000000202C
:10386000800000002C320008F8380008800000209A
:10387000F80600003C3200080900000000000000CB
:103880000000000000000000000000000000000038
:103890000000000000000000010000000000000027
:1038A0000000000000000000000000000000000018
:1038B0000048E801030406080C101820300000003E
:1038C00000000000000102030406070809000000D0
:1038D00000000000B915000881190008211B00082C
:1038E000111C00082D1C0008000000000100000051
:0838F0000000000000000000D0
:04000005080000F5FA
:00000001FF
